:030000000208856E
:0C088500787FE4F6D8FD7581070208A515
:10086E0048656C6C6F0057656C636F6D6520546FD7
:07087E00204368696E610070
:0F0800008F807F057E0012080FD2927F057E0049
:10080F00D3EF9400EE940040147D6E7C00ED1D70CC
:0D081F00011CED4C70F7EF1F70E61E80E32A
:01082C0022A9
:0A089100C291C290120800C2922228
:0A089B00C291D290120800C292220E
:10085100C291C2927F3C1208917F0C1208917F06CF
:0D0861001208917F011208917F800208911A
:10082D00E4FBEB90086E93FF12089B0BBB05F37F67
:10083D00C0120891E4FBEB90087493FF12089B0B18
:03084D00BB10F3EA
:010850002285
:0608A50012085102082DAB
:00000001FF
