:0300000002095F93
:0C095F00787FE4F6D8FD7581190209A626
:050BF800AF0FAE0E225C
:1009EB008C0E8D0FEE706EEFB4080050689009FFFF
:1009FB00F8282873020A17020A20020A29020A326F
:100A0B00020A3B020A44020A4D020A56120BF8ADC7
:100A1B00077F01803D120BF8AD077F028034120B6C
:100A2B00F8AD077F03802B120BF8AD077F048022F4
:100A3B00120BF8AD077F058019120BF8AD077F0677
:100A4B008010120BF8AD077F078007120BF8AD076C
:060A5B007F08120BB72218
:070BEA00E4FD7F0C020BB7D4
:100B41008F12E4F513C2B2E5123392B0120BF1D257
:100B5100B2120BF1E51225E0F5120513E513C3946A
:040B61000840E22244
:100BB7008F108D11C2B1120BF1AF10120B41AF1193
:060BC700120B41D2B12225
:100B83007D047F0B120BB77DFF7F09120BB77D0727
:0C0B93007F0A120BB77D017F0C020BB72C
:070BF10000000000000022DB
:080BD9000214001E02160000C8
:100B6500D3EF9400EE940040147D6E7C00ED1D7073
:0D0B7500011CED4C70F7EF1F70E61E80E3D1
:010B82002250
:020AC7008F0E90
:100AC900C2B7EFFD7C007E017FF4120A61E48F1248
:100AD9008E11F510F50FE4FFFEFDFCAB12AA11A96A
:100AE90010A80FD3120AB64023B2B7AF0E7E001278
:100AF9000B65E51224FFF512E51134FFF511E51038
:0E0B090034FFF510E50F34FFF50F80CAC2B7B8
:010B170022BB
:080BE2007C007D0A120A612269
:0C0BCD007C007D0A120A61AE04AF052214
:100B9F00758901758AAF758C3C751800751914C26B
:080BAF00B9D2A9D28CC2AF2219
:03000B000208D117
:1008D100C0E0C0F0C083C082C0D075D000C000C0ED
:1008E10001C002C003C004C005C006C007758AAFBD
:1008F100758C3CE519151970021518E51945187024
:1009010042F518751914E515151570021514AF1572
:10091100AE14120BE2AC06AD07E4FFFE1209EBAF19
:1009210015AE14120BCDAC06AD077F017E00120986
:10093100EBE5154514700CF516F5177F03120AC780
:10094100120B9FD007D006D005D004D003D002D01F
:0E09510001D000D0D0D082D083D0F0D0E032E0
:100B180075140075151EAF15AE14120BE2AC06ADB8
:100B280007E4FFFE1209EBAF15AE14120BCDAC06AD
:090B3800AD077F017E000209EB0C
:100800007590FF120B83120B18120B9F7590FFE56A
:10081000A0F4604D75A0FF7F0A7E00120B65E5A075
:10082000B4FE15E5174516700F120B9F120B18E456
:10083000FDFC7F03FE1209EBE5A0B4FD1FE51745A3
:1008400016700CF516751701120B18D2AF8008E45C
:10085000F516F517120B9F7F03120AC7E5A0B4FF28
:10086000FBE517451660A8E590F460A37F0A7E00BB
:10087000120B65E590F46097AF90EF2441601F2460
:10088000E0601F24F0601F24F8601F24FC601F2418
:10089000FE601F146020247F70277D08801A7D076A
:1008A00080167D0680127D05800E7D04800A7D0302
:1008B00080067D0280027D017C007F037E0012099C
:1008C000EB7F01120AC7E4F516F517120B9F020819
:0108D0000F18
:10096B00020800E493A3F8E493A34003F68001F29A
:10097B0008DFF48029E493A3F85407240CC8C3338D
:10098B00C4540F4420C8834004F456800146F6DF5C
:10099B00E4800B0102040810204080900BD9E47E08
:1009AB00019360BCA3FF543F30E509541FFEE49351
:1009BB00A360010ECF54C025E060A840B8E493A318
:1009CB00FAE493A3F8E493A3C8C582C8CAC583CA43
:1009DB00F0A3C8C582C8CAC583CADFE9DEE780BEFB
:010BE1000013
:100A6100BC000BBE0029EF8DF084FFADF022E4CC79
:100A7100F875F008EF2FFFEE33FEEC33FCEE9DEC42
:100A8100984005FCEE9DFE0FD5F0E9E4CEFD22ED88
:100A9100F8F5F0EE8420D21CFEADF075F008EF2FD2
:100AA100FFED33FD4007985006D5F0F222C398FDC3
:050AB1000FD5F0EA2260
:100AB600EB9FF5F0EA9E42F0E99D42F0E89C45F096
:010AC600220D
:00000001FF
