:03000000020B8A66
:0C0B8A00787FE4F6D8FD758116020BD1CF
:0B0EAC00EF1FAC0670011E4C70F62218
:100DFC00E4FDD2967F0AFE120EACC2967F507E00A6
:100E0C00120EACD2967F147E00120EACA296E43376
:0A0E1C00FD7F1E7E00120EACD29680
:010E260022A9
:100E4900E4FDFBC296EDC313FDD29630960343052C
:0E0E5900807F087E00120EAC0BBB08E7AF05D1
:010E67002268
:020E2700AD0715
:100E2900E4FBC296ED1392967F0A7E00120EACD2B5
:100E390096EDC313FD0BBB08E97F087E00020EACDB
:100D9300E4FAFFF510F50FF50EF50D120DFC7FCCFF
:100DA300120E277F44120E27120DFC7FCC120E2742
:100DB3007FBE120E27120E49AA07120E49EFFEEA52
:100DC300FFFDAC06EC120A03E4FBFA7980783D12CE
:100DD30008F88F108E0F8D0E8C0DE4FFFE7D207CA6
:100DE30041AB10AA0FA90EA80D1208F8E4FBFAF9FB
:080DF300783F120807120A3CC8
:010DFB0022D5
:060C9A008B088A09890A9B
:100CA000C2AF120D938E0B8F0CD2AF7C037DE81276
:100CB0000AF1AB08AA09A90A900003EF120ACFAE05
:100CC0000BAF0C7C007D64120AF17C007D0A120AD5
:100CD000F1AB08AA09A90A900002ED120ACFAE0BE7
:100CE000AF0C7C007D64120AF17E007F0ACFCDCF6D
:100CF000CECCCE120AF1AB08AA09A90A900001EFE6
:100D0000120ACFAE0BAF0C7C007D0A120AF1AB08C1
:080D1000AA09A90AED020ABDBF
:0A0EB7000411000000000215000005
:100E6800D3EF9400EE940040147D6E7C00ED1D706D
:0D0E7800011CED4C70F7EF1F70E61E80E3CB
:010E8500224A
:100E9B00758902E4F58AF58CC2B9D2A9D28CD2AF8E
:010EAB002224
:100C1600EE707BEFB410005075900C26F828287300
:100C2600020C56020C5A020C5E020C62020C6602A0
:100C36000C6A020C6E020C72020C76020C7A020C22
:100C46007E020C82020C86020C8A020C8E020C9228
:100C56007D3F803A7D0680367D5B80327D4F802EDB
:100C66007D66802A7D6D80267D7D80227D07801EA3
:100C76007D7F801A7D6F80167D7780127D7C800E49
:100C86007D39800A7D5E80067D7980027D716305EF
:030C9600FFAF05A8
:010C99002238
:03000B00020D18CB
:100D1800C0E0C083C082C0D075D000C000C005C08C
:100D280006C00775A0FFC290C291C292C293E51592
:100D38007036E51614601014601D146020240370CA
:100D480027B290AF11801AB291AF127E00120C1622
:100D5800EF547FF5A08011B292AF138004B293AF25
:100D6800147E00120C168FA00516E51670020515E4
:100D7800640445157004F515F516D007D006D0059E
:0B0D8800D000D0D0D082D083D0E03269
:100E8600120E9B7B007A007911120C9A7F647E0009
:050E9600120E6880EE61
:10080000020AA8E86480F8E933E83360110460F074
:10081000ED33EC337009E8FCE9FDEAFEEBFF22045E
:1008200060DED3EB9FEA9EE99DE8C2E78CF0C2F759
:1008300095F0400CE8CCF8E9CDF9EACEFAEBCFFB25
:10084000120A7385D0F05804700320D5B3E8047001
:10085000075002B2D5020AB292D5EC0460F7E4CC9C
:10086000C0E0C398F8603B94186008400DD0E0FBEE
:10087000020A8AE4FBFAC9FC8028E830E406E4C9ED
:10088000FBE4CAFCE830E305E4C9CACBFCE8540742
:100890006010F8C3E913F9EA13FAEB13FBEC13FC4D
:1008A000D8F130F52FC3E49CFCEF9BFFEE9AFEEDF0
:1008B00099FDD0E0FBEF4E4D4C701222DB03020A93
:1008C000AFEC2CFCEF33FFEE33FEED33FDED30E704
:1008D000EB020A8AEF2BFFEE3AFEED39FDD0E0FB8A
:1008E00050130BBB0003020AB2ED13FDEE13FEEF33
:0808F00013FFEC13FC020A8A5D
:1008F800EC4D6011E8497017ED33EC3304600DE4FA
:10090800FCFFFEFD22E933E8330470F8020AA8125E
:100918000A7358046009E4CC24815006285009025F
:100928000AB2284003020AAFC0E0EB4A7044B9801B
:1009380006D0E0FB020A9EEF4E701CBD8008EBFF5C
:10094800EAFEE9FD80EBE98DF0A4FEE5F00209E19D
:10095800E9CDF9EAFEEBFFEF89F0A4FCE5F0CE89DA
:10096800F0A42EFFE435F0CD89F0A42DFEE435F097
:100978008067EF4E7005BD80D780C3EF8BF0A4ACC5
:10098800F0EE8BF0A42CFCE435F0F8EF8AF0A42C00
:10099800E5F038FCE433CB8DF0A42CFCE5F03BF813
:1009A800EE8AF0A42CFCE5F038F8E433CF89F0A403
:1009B8002CFCE5F038CF3400CE89F0A42FFFE5F009
:1009C8003EFEE433C98DF0A42EFEE5F039CD8AF061
:1009D800A42FFFE5F03EFEE43DFD33D0E0FB5007D9
:1009E8000BBB000F020AB2EC2CFCEF33FFEE33FE18
:0609F800ED33FD020A8A46
:1009FE0075F020800E75F010800575F0087D007E74
:100A0E00007F003392D530D503120B27EC33401004
:100A1E00EF33FFEE33FEED33FDEC33FCD5F0ED227C
:0E0A2E00E5F0247EA2D513CC92E7CDCEFF22B8
:100A3C00EDD2E7CD33EC3392D524814006E4FFFEB2
:100A4C00FDFC22FCE4CFCECDCC24E0501174FF8011
:100A5C00EDC3CC13CCCD13CDCE13CECF13CF0470AE
:070A6C00F030D5DE020B277C
:100A7300E9D2E7C933E833F892D5EDD2E7CD33ECC9
:070A830033FC5002B2D52242
:100A8A00EC30E7100FBF000C0EBE00080DBD0004CD
:100A9A000BEB6014A2D5EB13FCED92E7FD2274FF79
:100AAA00FCFDFEFF22E480F8A2D574FF13FC7D80D2
:030ABA00E480EFE6
:100B9600020E86E493A3F8E493A34003F68001F2E1
:100BA60008DFF48029E493A3F85407240CC8C33360
:100BB600C4540F4420C8834004F456800146F6DF2F
:100BC600E4800B0102040810204080900EB7E47EFA
:100BD600019360BCA3FF543F30E509541FFEE49324
:100BE600A360010ECF54C025E060A840B8E493A3EB
:100BF600FAE493A3F8E493A3C8C582C8CAC583CA16
:100C0600F0A3C8C582C8CAC583CADFE9DEE780BECD
:010EC1000030
:100ABD00BB010689828A83F0225002F722BBFE0118
:020ACD00F32212
:100ACF00F8BB010DE58229F582E5833AF583E8F05D
:100ADF00225006E92582C8F622BBFE05E92582C809
:020AEF00F222F1
:100AF100C2D5EC30E709B2D5E4C39DFDE49CFCEE20
:100B010030E715B2D5E4C39FFFE49EFE120B35C357
:100B1100E49DFDE49CFC8003120B3530D507C3E452
:060B21009FFFE49EFE228E
:0E0B2700C3E49FFFE49EFEE49DFDE49CFC22DF
:100B3500BC000BBE0029EF8DF084FFADF022E4CCA4
:100B4500F875F008EF2FFFEE33FEEC33FCEE9DEC6D
:100B5500984005FCEE9DFE0FD5F0E9E4CEFD22EDB3
:100B6500F8F5F0EE8420D21CFEADF075F008EF2FFD
:100B7500FFED33FD4007985006D5F0F222C398FDEE
:050B85000FD5F0EA228B
:00000001FF
