:03000000020A11E0
:0C0A1100787FE4F6D8FD75810C02080027
:1009AE0020506F77657265642062792057687920D0
:1009BE00200057656C636F6D6520546F2043686926
:0309CE006E610057
:0F0959008F807F057E00120968D2A27F057E0085
:10096800D3EF9400EE940040147D6E7C00ED1D7072
:0D097800011CED4C70F7EF1F70E61E80E3D0
:01098500224F
:0C0A1D008F0CC2A1C2A0120959C2A22273
:0C0A2900050CC2A1D2A0120959C2A222E1
:0608A3008B088A09890A96
:1008A900EE7059EF24FE602C0470517F80120A1DEE
:1008B900E4F50BAB08AA09A90A850B827583001216
:1008C9000906FF640A6035120A29050BE50BC39472
:1008D9001040E0227FC0120A1DE4F50BAB08AA09FB
:1008E900A90A850B82758300120906FF640A600C48
:0C08F900120A29050BE50BC3941040E027
:0109050022CF
:1009D100C2A1C2A27F3C120A1D7F0C120A1D7F0612
:0809E100120A1D7F01020A1D2C
:1009FE00150CAF0C120A1D7F20120A29150CAF0C14
:030A0E00020A1DBC
:1009E9001209D17BFF7A0979AE7F017E001208A333
:0509F9007FC3020A1D8E
:02098600A907BF
:10098800C2A374FF89F084FB7A00D3EB9400EA9445
:10099800004010B2A3E9FF7E00120968EB1B70EA61
:0509A8001A80E7C2A364
:0109AD002227
:100800001209E97590F0E59064F060FA7F0A7E00C5
:10081000120968E59064F060EDAF9075900FAE90AE
:10082000EE4207EF120933088BB70874BB0863BDAB
:100830000857BE0884D7086BDB085FDD0853DE0865
:100840007DE70867EB085BED084FEE000008957F39
:1008500032803A7F3180167F30801B7F35802E7F3B
:1008600034800A7F33800F7F3880227F37120A2935
:100870007F02801E7F36120A297F0380151209E944
:100880007F04800E1209FE7F0480077F39120A2937
:100890007F011209867590F0E59064F070030208FC
:0308A0000680F5DA
:10090600BB010CE58229F582E5833AF583E02250A6
:1009160006E92582F8E622BBFE06E92582F8E222F0
:0D092600E58229F582E5833AF583E493220A
:10093300D083D082F8E4937012740193700DA3A353
:1009430093F8740193F5828883E473740293686067
:06095300EFA3A3A380DF67
:00000001FF
